{
  "_format": "hh-sol-artifact-1",
  "contractName": "EmojiDecision",
  "sourceName": "contracts/EmojiDecision.sol",
  "abi": [
    {
      "inputs": [],
      "stateMutability": "payable",
      "type": "constructor"
    },
    {
      "anonymous": false,
      "inputs": [
        {
          "indexed": true,
          "internalType": "address",
          "name": "from",
          "type": "address"
        },
        {
          "indexed": false,
          "internalType": "bool",
          "name": "isAlien",
          "type": "bool"
        },
        {
          "indexed": false,
          "internalType": "string",
          "name": "message",
          "type": "string"
        },
        {
          "indexed": false,
          "internalType": "uint256",
          "name": "timestamp",
          "type": "uint256"
        }
      ],
      "name": "NewVote",
      "type": "event"
    },
    {
      "inputs": [],
      "name": "getAllVotes",
      "outputs": [
        {
          "components": [
            {
              "internalType": "address",
              "name": "voter",
              "type": "address"
            },
            {
              "internalType": "bool",
              "name": "isAlien",
              "type": "bool"
            },
            {
              "internalType": "string",
              "name": "message",
              "type": "string"
            },
            {
              "internalType": "uint256",
              "name": "timestamp",
              "type": "uint256"
            }
          ],
          "internalType": "struct EmojiDecision.Vote[]",
          "name": "",
          "type": "tuple[]"
        }
      ],
      "stateMutability": "view",
      "type": "function"
    },
    {
      "inputs": [],
      "name": "getMaxVoterAndVotes",
      "outputs": [
        {
          "internalType": "address",
          "name": "",
          "type": "address"
        },
        {
          "internalType": "uint256",
          "name": "",
          "type": "uint256"
        }
      ],
      "stateMutability": "view",
      "type": "function"
    },
    {
      "inputs": [],
      "name": "getTotalVotes",
      "outputs": [
        {
          "internalType": "uint256",
          "name": "",
          "type": "uint256"
        }
      ],
      "stateMutability": "view",
      "type": "function"
    },
    {
      "inputs": [],
      "name": "getWinner",
      "outputs": [
        {
          "internalType": "int256",
          "name": "",
          "type": "int256"
        }
      ],
      "stateMutability": "view",
      "type": "function"
    },
    {
      "inputs": [
        {
          "internalType": "address",
          "name": "",
          "type": "address"
        }
      ],
      "name": "lastVotedAt",
      "outputs": [
        {
          "internalType": "uint256",
          "name": "",
          "type": "uint256"
        }
      ],
      "stateMutability": "view",
      "type": "function"
    },
    {
      "inputs": [
        {
          "internalType": "bool",
          "name": "isAlien",
          "type": "bool"
        },
        {
          "internalType": "string",
          "name": "_message",
          "type": "string"
        }
      ],
      "name": "vote",
      "outputs": [],
      "stateMutability": "nonpayable",
      "type": "function"
    }
  ],
  "bytecode": "0x608060405273e89a6ea69386ca2dd98e1d7eab63eea8040a8f1f600760006101000a81548173ffffffffffffffffffffffffffffffffffffffff021916908373ffffffffffffffffffffffffffffffffffffffff1602179055506200008860405180606001604052806023815260200162001ae0602391396200008e60201b62000c421760201c565b62000222565b6200012e81604051602401620000a591906200019b565b6040516020818303038152906040527f41304fac000000000000000000000000000000000000000000000000000000007bffffffffffffffffffffffffffffffffffffffffffffffffffffffff19166020820180517bffffffffffffffffffffffffffffffffffffffffffffffffffffffff83818316178352505050506200013160201b60201c565b50565b60008151905060006a636f6e736f6c652e6c6f679050602083016000808483855afa5050505050565b60006200016782620001bf565b620001738185620001ca565b935062000185818560208601620001db565b620001908162000211565b840191505092915050565b60006020820190508181036000830152620001b781846200015a565b905092915050565b600081519050919050565b600082825260208201905092915050565b60005b83811015620001fb578082015181840152602081019050620001de565b838111156200020b576000848401525b50505050565b6000601f19601f8301169050919050565b6118ae80620002326000396000f3fe608060405234801561001057600080fd5b50600436106100625760003560e01c80634382d0c214610067578063548546eb14610097578063851b6ef2146100b65780638e7ea5b2146100d45780639a0e7d66146100f2578063efcee86914610110575b600080fd5b610081600480360381019061007c9190611098565b61012c565b60405161008e9190611695565b60405180910390f35b61009f610144565b6040516100ad929190611457565b60405180910390f35b6100be610235565b6040516100cb9190611480565b60405180910390f35b6100dc6103b1565b6040516100e991906114e0565b60405180910390f35b6100fa610528565b6040516101079190611695565b60405180910390f35b61012a600480360381019061012591906110c1565b6105cf565b005b60066020528060005260406000206000915090505481565b600080606060016004541461018e576040518060400160405280600181526020017f730000000000000000000000000000000000000000000000000000000000000081525061019f565b604051806020016040528060008152505b90506102066040518060400160405280601f81526020017f4d617820766f746572206973202573207769746820256920766f746525732e00815250600360009054906101000a900473ffffffffffffffffffffffffffffffffffffffff1660045484610cdb565b600360009054906101000a900473ffffffffffffffffffffffffffffffffffffffff1660045492509250509091565b60606008805480602002602001604051908101604052809291908181526020016000905b828210156103a857838290600052602060002090600302016040518060800160405290816000820160009054906101000a900473ffffffffffffffffffffffffffffffffffffffff1673ffffffffffffffffffffffffffffffffffffffff1673ffffffffffffffffffffffffffffffffffffffff1681526020016000820160149054906101000a900460ff16151515158152602001600182018054600181600116156101000203166002900480601f0160208091040260200160405190810160405280929190818152602001828054600181600116156101000203166002900480156103865780601f1061035b57610100808354040283529160200191610386565b820191906000526020600020905b81548152906001019060200180831161036957829003601f168201915b5050505050815260200160028201548152505081526020019060010190610259565b50505050905090565b600080600254600154039050606060018214806103ed57507fffffffffffffffffffffffffffffffffffffffffffffffffffffffffffffffff82145b61042c576040518060400160405280600181526020017f730000000000000000000000000000000000000000000000000000000000000081525061043d565b604051806020016040528060008152505b9050600082131561048d576104886040518060400160405280601c81526020017f54686520616c69656e2077696e7320627920256920766f7465257321000000008152508383610d7d565b610520565b60008212156104fd576104f86040518060400160405280601c81526020017f5468652073717569642077696e7320627920256920766f746525732100000000815250837fffffffffffffffffffffffffffffffffffffffffffffffffffffffffffffffff0283610d7d565b61051f565b61051e60405180606001604052806021815260200161185860219139610c42565b5b5b819250505090565b60006060600160005414610571576040518060400160405280600181526020017f7300000000000000000000000000000000000000000000000000000000000000815250610582565b604051806020016040528060008152505b90506105c66040518060400160405280601881526020017f5765206861766520256920746f74616c20766f746525732e000000000000000081525060005483610d7d565b60005491505090565b600760009054906101000a900473ffffffffffffffffffffffffffffffffffffffff1673ffffffffffffffffffffffffffffffffffffffff163373ffffffffffffffffffffffffffffffffffffffff1614156106ae5742601e600660003373ffffffffffffffffffffffffffffffffffffffff1673ffffffffffffffffffffffffffffffffffffffff1681526020019081526020016000205401106106a9576040517f08c379a00000000000000000000000000000000000000000000000000000000081526004016106a090611655565b60405180910390fd5b610734565b4261012c600660003373ffffffffffffffffffffffffffffffffffffffff1673ffffffffffffffffffffffffffffffffffffffff168152602001908152602001600020540110610733576040517f08c379a000000000000000000000000000000000000000000000000000000000815260040161072a90611675565b60405180910390fd5b5b600080815480929190600101919050555081156107a15760016000815480929190600101919050555061079c6040518060400160405280601b81526020017f25732068617320766f74656420666f722074686520616c69656e21000000000081525033610e1c565b6107f3565b6002600081548092919060010191905055506107f26040518060400160405280601b81526020017f25732068617320766f74656420666f722074686520737175696421000000000081525033610e1c565b5b42600660003373ffffffffffffffffffffffffffffffffffffffff1673ffffffffffffffffffffffffffffffffffffffff16815260200190815260200160002081905550600560003373ffffffffffffffffffffffffffffffffffffffff1673ffffffffffffffffffffffffffffffffffffffff16815260200190815260200160002060008154809291906001019190505550600454600560003373ffffffffffffffffffffffffffffffffffffffff1673ffffffffffffffffffffffffffffffffffffffff1681526020019081526020016000205411156109575733600360006101000a81548173ffffffffffffffffffffffffffffffffffffffff021916908373ffffffffffffffffffffffffffffffffffffffff160217905550600560003373ffffffffffffffffffffffffffffffffffffffff1673ffffffffffffffffffffffffffffffffffffffff168152602001908152602001600020546004819055505b600860405180608001604052803373ffffffffffffffffffffffffffffffffffffffff168152602001841515815260200183815260200142815250908060018154018082558091505060019003906000526020600020906003020160009091909190915060008201518160000160006101000a81548173ffffffffffffffffffffffffffffffffffffffff021916908373ffffffffffffffffffffffffffffffffffffffff16021790555060208201518160000160146101000a81548160ff0219169083151502179055506040820151816001019080519060200190610a3e929190610f7d565b50606082015181600201555050600060646009544244010181610a5d57fe5b069050610a9f6040518060400160405280601681526020017f52616e646f6d20232067656e6572617465643a2025730000000000000000000081525082610eb8565b80600981905550600a811015610beb57610aee6040518060400160405280600781526020017f257320776f6e210000000000000000000000000000000000000000000000000081525033610e1c565b60006509184e72a000905047811115610b3c576040517f08c379a0000000000000000000000000000000000000000000000000000000008152600401610b3390611615565b60405180910390fd5b60003373ffffffffffffffffffffffffffffffffffffffff1682604051610b6290611442565b60006040518083038185875af1925050503d8060008114610b9f576040519150601f19603f3d011682016040523d82523d6000602084013e610ba4565b606091505b5050905080610be8576040517f08c379a0000000000000000000000000000000000000000000000000000000008152600401610bdf90611635565b60405180910390fd5b50505b3373ffffffffffffffffffffffffffffffffffffffff167f11256340f2de8f970699cb8c67db33c4a92177bcc0eacd66106faba4c8c9bb07848442604051610c35939291906114a2565b60405180910390a2505050565b610cd881604051602401610c5691906114fb565b6040516020818303038152906040527f41304fac000000000000000000000000000000000000000000000000000000007bffffffffffffffffffffffffffffffffffffffffffffffffffffffff19166020820180517bffffffffffffffffffffffffffffffffffffffffffffffffffffffff8381831617835250505050610f54565b50565b610d7784848484604051602401610cf5949392919061154d565b6040516020818303038152906040527f4c55f234000000000000000000000000000000000000000000000000000000007bffffffffffffffffffffffffffffffffffffffffffffffffffffffff19166020820180517bffffffffffffffffffffffffffffffffffffffffffffffffffffffff8381831617835250505050610f54565b50505050565b610e17838383604051602401610d95939291906115d0565b6040516020818303038152906040527fa3f5c739000000000000000000000000000000000000000000000000000000007bffffffffffffffffffffffffffffffffffffffffffffffffffffffff19166020820180517bffffffffffffffffffffffffffffffffffffffffffffffffffffffff8381831617835250505050610f54565b505050565b610eb48282604051602401610e3292919061151d565b6040516020818303038152906040527f319af333000000000000000000000000000000000000000000000000000000007bffffffffffffffffffffffffffffffffffffffffffffffffffffffff19166020820180517bffffffffffffffffffffffffffffffffffffffffffffffffffffffff8381831617835250505050610f54565b5050565b610f508282604051602401610ece9291906115a0565b6040516020818303038152906040527f9710a9d0000000000000000000000000000000000000000000000000000000007bffffffffffffffffffffffffffffffffffffffffffffffffffffffff19166020820180517bffffffffffffffffffffffffffffffffffffffffffffffffffffffff8381831617835250505050610f54565b5050565b60008151905060006a636f6e736f6c652e6c6f679050602083016000808483855afa5050505050565b828054600181600116156101000203166002900490600052602060002090601f016020900481019282601f10610fbe57805160ff1916838001178555610fec565b82800160010185558215610fec579182015b82811115610feb578251825591602001919060010190610fd0565b5b509050610ff99190610ffd565b5090565b5b80821115611016576000816000905550600101610ffe565b5090565b60008135905061102981611829565b92915050565b60008135905061103e81611840565b92915050565b600082601f83011261105557600080fd5b8135611068611063826116e1565b6116b0565b9150808252602083016020830185838301111561108457600080fd5b61108f8382846117d4565b50505092915050565b6000602082840312156110aa57600080fd5b60006110b88482850161101a565b91505092915050565b600080604083850312156110d457600080fd5b60006110e28582860161102f565b925050602083013567ffffffffffffffff8111156110ff57600080fd5b61110b85828601611044565b9150509250929050565b600061112183836113c1565b905092915050565b61113281611782565b82525050565b61114181611782565b82525050565b600061115282611721565b61115c8185611744565b93508360208202850161116e85611711565b8060005b858110156111aa578484038952815161118b8582611115565b945061119683611737565b925060208a01995050600181019050611172565b50829750879550505050505092915050565b6111c581611794565b82525050565b6111d481611794565b82525050565b6111e3816117a0565b82525050565b60006111f48261172c565b6111fe8185611760565b935061120e8185602086016117e3565b61121781611818565b840191505092915050565b600061122d8261172c565b6112378185611771565b93506112478185602086016117e3565b61125081611818565b840191505092915050565b6000611268603483611771565b91507f547279696e6720746f207769746864726177206d6f7265206d6f6e657920746860008301527f616e2074686520636f6e7472616374206861732e0000000000000000000000006020830152604082019050919050565b60006112ce602783611771565b91507f4661696c656420746f207769746864726177206d6f6e65792066726f6d20636f60008301527f6e74726163742e000000000000000000000000000000000000000000000000006020830152604082019050919050565b6000611334600883611771565b91507f57616974203330730000000000000000000000000000000000000000000000006000830152602082019050919050565b6000611374600083611755565b9150600082019050919050565b600061138e600783611771565b91507f5761697420356d000000000000000000000000000000000000000000000000006000830152602082019050919050565b60006080830160008301516113d96000860182611129565b5060208301516113ec60208601826111bc565b506040830151848203604086015261140482826111e9565b91505060608301516114196060860182611424565b508091505092915050565b61142d816117ca565b82525050565b61143c816117ca565b82525050565b600061144d82611367565b9150819050919050565b600060408201905061146c6000830185611138565b6114796020830184611433565b9392505050565b6000602082019050818103600083015261149a8184611147565b905092915050565b60006060820190506114b760008301866111cb565b81810360208301526114c98185611222565b90506114d86040830184611433565b949350505050565b60006020820190506114f560008301846111da565b92915050565b600060208201905081810360008301526115158184611222565b905092915050565b600060408201905081810360008301526115378185611222565b90506115466020830184611138565b9392505050565b600060808201905081810360008301526115678187611222565b90506115766020830186611138565b6115836040830185611433565b81810360608301526115958184611222565b905095945050505050565b600060408201905081810360008301526115ba8185611222565b90506115c96020830184611433565b9392505050565b600060608201905081810360008301526115ea8186611222565b90506115f96020830185611433565b818103604083015261160b8184611222565b9050949350505050565b6000602082019050818103600083015261162e8161125b565b9050919050565b6000602082019050818103600083015261164e816112c1565b9050919050565b6000602082019050818103600083015261166e81611327565b9050919050565b6000602082019050818103600083015261168e81611381565b9050919050565b60006020820190506116aa6000830184611433565b92915050565b6000604051905081810181811067ffffffffffffffff821117156116d7576116d6611816565b5b8060405250919050565b600067ffffffffffffffff8211156116fc576116fb611816565b5b601f19601f8301169050602081019050919050565b6000819050602082019050919050565b600081519050919050565b600081519050919050565b6000602082019050919050565b600082825260208201905092915050565b600081905092915050565b600082825260208201905092915050565b600082825260208201905092915050565b600061178d826117aa565b9050919050565b60008115159050919050565b6000819050919050565b600073ffffffffffffffffffffffffffffffffffffffff82169050919050565b6000819050919050565b82818337600083830152505050565b60005b838110156118015780820151818401526020810190506117e6565b83811115611810576000848401525b50505050565bfe5b6000601f19601f8301169050919050565b61183281611782565b811461183d57600080fd5b50565b61184981611794565b811461185457600080fd5b5056fe54686520616c69656e20616e642074686520737175696420617265207469656421a2646970667358221220bd92061978b09389b9fd9eb6179217e35c52086b86c097cc20dc771791eb703164736f6c63430007030033497420697320492c2074686520736d617274657374206f6620636f6e7472616374732e",
  "linkReferences": {},
  "deployedLinkReferences": {}
}